:100000000C942A000C9447000C9447000C94470071
:100010000C9447000C9447000C9447000C94470044
:100020000C9447000C9447000C9447000C94470034
:100030000C9447000C9427050C9447000C9447003F
:100040000C9447000C9447000C9447000C94470014
:100050000C94470011241FBECFE5D8E0DEBFCDBF12
:1000600012E0A0E6B0E0E0EAF7E102C005900D92F0
:10007000AC3AB107D9F713E0ACEAB2E001C01D9287
:10008000AE36B107E1F70E94FE050C94CE0B0C943E
:10009000000087B3807F87BB969A939882E08A9509
:1000A000F1F700C0C49A92E09A95F1F700C086B3C8
:1000B0008295807F92E09A95F1F700C0C49895E010
:1000C0009A95F1F70000C49A92E09A95F1F700C072
:1000D00096B392E09A95F1F700C0C49895E09A958E
:1000E000F1F7000087FDDECF969887B38F6087BB5E
:1000F0000895282F22952F708F70662321F1939AEF
:1001000092E09A95F1F700C0C49A98B3907F922B31
:1001100098BB95E09A95F1F70000C49895E09A9500
:10012000F1F70000C49A98B3907F982B98BB85E0B4
:100130008A95F1F70000C49895E09A95F1F70000D0
:100140000E94490008959398DBCF0F931F93CF939C
:10015000DF938C01FC0180818823B9F422C0E8017F
:100160002196F80181818053883030F085E261E08A
:100170000E947900F801818161E00E9479008E017E
:100180000F5F1F4F8981882361F0853241F361E061
:100190000E947900E8018E010F5F1F4F898188233B
:1001A000A1F7DF91CF911F910F910895CF92DF9228
:1001B000EF92FF920F931F93CF93DF9300D000D065
:1001C0000F92CDB7DEB77B016E010894C11CD11C24
:1001D00025E0F60111922A95E9F7009759F0FE0102
:1001E00036962AE030E0B9010E946D088293CB0177
:1001F0000097C9F7FFEFEF16FFEFFF0659F105E093
:1002000010E00E191F0905301105B4F4F601E00FD6
:10021000F11F80810F5F1F4F7601E00EF11E05C0B8
:10022000F70181917F010F5F1F4F805D61E00E94A8
:10023000790005301105A4F30F900F900F900F90E7
:100240000F90DF91CF911F910F91FF90EF90DF9072
:10025000CF9008958981882351F4FE01329600E001
:1002600010E00F5F1F4F81918823D9F3CCCF00E0BE
:1002700010E0D0CF843158F4623051F0633071F027
:10028000613009F48064806860E00E94790008951C
:100290008C5E806860E00E947900F9CF8C5A80689B
:1002A00060E00E947900F3CF0F931F93CF93DF9309
:1002B0000F92CDB7DEB72FEF36E741E02150304047
:1002C0004040E1F700C0000097B39F6097BBBC9A25
:1002D0008B9A8E9A98B3907F98BBC498969893986F
:1002E00000C000C00000C49AC19A35E03A95F1F709
:1002F0000000C49845E04A95F1F7000089830E9408
:10030000490089818C6060E00E94790088E260E0A9
:100310000E94790080E460E00E94790000E610E02D
:10032000F80181918F0161E00E947900F0E0003ACC
:100330001F07B1F780E060E00E943A010F90DF9163
:10034000CF911F910F910895FF920F931F93CF9319
:10035000DF93082FC92F0E94CC058DE00E94A605CF
:10036000E02FFC2FDF010D900020E9F7FA2EF01AA4
:100370008F2D90E08C01000F111F880F991F880F9F
:10038000991F880F991F080F191F0115110581F07A
:10039000C0E0D0E00E94AA058F1588F421968FE373
:1003A0009CE90197F1F700C00000C017D10791F751
:1003B0008DEFDF91CF911F910F91FF9008958EEEF9
:1003C00092E06F2D70E00E94D80581E0DF91CF911F
:1003D0001F910F91FF900895FC0181818A3011F0E7
:1003E0008FEF089580818D30D9F7842F8250DF01FF
:1003F000A80FB11D11969C9111979A3089F79C9185
:100400009D3071F7833088F09281DB018C919817D1
:1004100081F433961196455080E005C021919D915D
:100420008F5F291721F48417C9F781E008958EEFB3
:1004300008958EEF0895CF93DF9387E690E00E94B2
:100440001A0580EA90E00E94A401CAE0D0E00E9470
:10045000AA05863060F48FE39CE90197F1F700C0AC
:1004600000002197A1F78DEFDF91CF9108958EEED7
:1004700092E066E070E00E94D8058EEE92E063EABA
:1004800070E046E00E94EC01DF91CF910895FF9269
:100490000F931F93CF93DF938C01C0E0D0E0FF2434
:1004A0000E94AA05882319F4C017D107D0F0C017FD
:1004B000D107F9F00E947F05EF2DF0E0E251FD4FEA
:1004C00080838D3011F0F394EBCFFF20E1F30E9495
:1004D000F5058F2D8F5FDF91CF911F910F91FF90C9
:1004E000089521968FE99FE00197F1F700C0000081
:1004F000D7CF80E0DF91CF911F910F91FF900895AA
:10050000CF93DF9386EA90E00E94A401CAE0D0E096
:100510000E94AA05843160F48FE39CE90197F1F70A
:1005200000C000002197A1F78DEFDF91CF910895D2
:100530008EEE92E064E170E00E94D8058091F902AD
:10054000813361F0823331F0853361F083E6DF91EE
:10055000CF91089582E0DF91CF91089581E0DF91FE
:10056000CF91089585E0DF91CF910895CF93DF93E8
:100570000E94F5058FEA90E00E94A401CEE1D0E050
:100580000E94AA05863150F48FE39CE90197F1F7A8
:1005900000C000002197A1F78DEF0CC08EEE92E015
:1005A00066E170E00E94D80581E09091FB029133F2
:1005B00009F080E0DF91CF9108950F931F93CF93BF
:1005C000DF938C010E94F5058AEB90E00E94A40164
:1005D00088EE93E00E944702882331F48DEFDF918B
:1005E000CF911F910F9108958EEE92E062E270E03C
:1005F0000E94C508EC012196CE0162E270E00E94E3
:10060000C508FC011082C801BE010E94D008D801B3
:100610000D900020E9F711978A2F801BDF91CF9171
:100620001F910F910895CF93DF93EC010E94F50580
:1006300083EC90E00E94A40188EE93E00E944702C0
:10064000882371F0E82FF0E0E351FD4F1082CE01D6
:1006500060EF72E00E94D00881E0DF91CF910895B1
:100660008DEFFBCFCF93DF93EC010E94F5058AEC71
:1006700090E00E94A40188EE93E00E944702882344
:1006800071F0E82FF0E0E351FD4F1082CE0160EFF2
:1006900072E00E94D00881E0DF91CF9108958DEF44
:1006A000FBCFCF93DF93EC010E94F50581ED90E045
:1006B0000E94A40188EE93E00E944702882371F013
:1006C000E82FF0E0E351FD4F1082CE0160EF72E0C1
:1006D0000E94D00881E0DF91CF9108958DEFFBCF8C
:1006E0000F931F93CF93DF93CDB7DEB761970FB60C
:1006F000F894DEBF0FBECDBF898B0E94F50500D0F8
:1007000000D000D0EDB7FEB731968E010F5F1F4FBE
:10071000ADB7BEB712961C930E93119728ED30E03B
:10072000338322838989848315820E94F7088DB7D9
:100730009EB706960FB6F8949EBF0FBE8DBFC80138
:100740000E94A40188EE93E00E9447028823C9F02A
:10075000E82FF0E0E351FD4F108280EF92E063EA72
:1007600070E00E94B208009771F481E061960FB6C4
:10077000F894DEBF0FBECDBFDF91CF911F910F91D7
:1007800008958DEFF3CF8EEFF1CF0F931F93CF939B
:10079000DF9300D000D0CDB7DEB78C018AEF90E0B8
:1007A0000E944702882371F1E82FF0E0E351FD4FEA
:1007B000108280EF92E063EE70E046E050E00E942D
:1007C000D7080097E9F48EEE92E06CE270E00E94A8
:1007D000C508BC016F5F7F4FCE0101960E94D00813
:1007E000CE0101960E949408F801808381E00F9069
:1007F0000F900F900F90DF91CF911F910F9108955F
:100800008EEFF5CF8DEFF3CFEF92FF920F931F9303
:10081000CF93DF93CDB7DEB761970FB6F894DEBF05
:100820000FBECDBF7B01898B0E94F50500D000D0A3
:1008300000D0EDB7FEB731968E010F5F1F4FADB7F9
:10084000BEB712961C930E9311972AEE30E03383B5
:1008500022838989848315820E94F7088DB79EB709
:1008600006960FB6F8949EBF0FBE8DBFC8010E94BA
:10087000A40188EE93E00E9447028823B9F1E82F93
:10088000F0E0E351FD4F108280EF92E065EF70E001
:100890000E94B208009771F484E661960FB6F8944E
:1008A000DEBF0FBECDBFDF91CF911F910F91FF90A3
:1008B000EF90089580EF92E063EA70E00E94B20842
:1008C000009711F485E6E9CF88EE93E00E94470295
:1008D000882361F0E82FF0E0E351FD4F1082C7015B
:1008E0006FEE72E00E94D00881E0D7CF8DEFD5CFB8
:1008F000AF92BF92CF92DF92EF92FF920F931F932E
:10090000CF93DF93CDB7DEB769970FB6F894DEBF0C
:100910000FBECDBF6C018B015A010E94F50500D0BE
:1009200000D000D0EDB7FEB731967E010894E11CEF
:10093000F11CADB7BEB71296FC92EE92119785E00E
:1009400091E093838283D582C4820E94F70822E2D9
:100950002987F70101900020E9F73197EE198E2FD2
:1009600090E0F701E80FF91F20838C0F9D1FFC0119
:1009700012828DB79EB706960FB6F8949EBF0FBE33
:100980008DBFC7010E94A4018FEF91EEA4E08150BA
:100990009040A040E1F700C00000C8010E94CC05D3
:1009A0008AE10E94A6050E94AA05F8010190002094
:1009B000E9F7E01BF10B349690E08E179F0798F350
:1009C0008EEE92E0BF010E94D80580E797E10E9479
:1009D0004702882349F1E82FF0E0E351FD4F1082F0
:1009E00080EF92E061E171E045E050E00E94D708BD
:1009F0000097E1F486EF92E00E949408D5018C9371
:100A00000E94F50581E069960FB6F894DEBF0FBE2F
:100A1000CDBFDF91CF911F910F91FF90EF90DF90AD
:100A2000CF90BF90AF9008958DEFEDCF0E94F50568
:100A30008EEFE9CF2FEF2093AD022093AC0290BD53
:100A400089B986E880BD88E98AB9789408951F92AB
:100A50000F920FB60F9211242F933F934F938F93C2
:100A60009F93EF93FF934CB18091AD028F3389F147
:100A70008091AD022091AC02992787FD9095019657
:100A8000332727FD30958217930739F18091AD0206
:100A90008F3391F18091AD028F5F8093AD02E09131
:100AA000AD02FF27E7FDF095E255FD4F40838091B1
:100AB000AC028F3F11F41092AC02FF91EF919F9125
:100AC0008F914F913F912F910F900FBE0F901F90DC
:100AD00018958091AC02882359F68091AC028F5F03
:100AE0008093AC028091AC02803481F61092AC020B
:100AF0008091AD028F3371F61092AD02D0CF80910C
:100B0000AC028F3FD9F0E091AC02FF27E7FDF095F2
:100B1000E255FD4F80812091AC029091AD022917E2
:100B200079F09091AC029F5F9093AC029091AC02EF
:100B3000903409F008951092AC02089580E0089571
:100B40009FEF9093AD029093AC0208955D9BFECF12
:100B50008CB908958091AC028F3FD1F09091AC0296
:100B60008091AD0298176CF09091AC028091AD022B
:100B7000891784F48091AD029091AC028F5B891B40
:100B800008958091AD029091AC028F5F891B08950A
:100B900080E0089581E00895FC018081882339F088
:100BA00031965D9BFECF8CB981918823D1F7089552
:100BB000EF92FF920F931F93CF93DF93EB01209758
:100BC00069F07C0100E010E00E947F05F70181934D
:100BD0007F010F5F1F4F0C171D07B1F7DF91CF91FA
:100BE0001F910F91FF90EF90089502C00E947F0522
:100BF0000E94AA058823D1F70895FFCFCF93DF93F2
:100C0000CDB7DEB7CF5BD1400FB6F894DEBF0FBED5
:100C1000CDBF80E00E94540187E191E00E94A500D1
:100C200080E061E00E943A0185E291E00E94A50027
:100C30002FEF33ED40E3215030404040E1F700C05A
:100C4000000081E060E00E94790086E391E00E946C
:100C5000A5000E941B022FEF33ED40E321503040EE
:100C60004040E1F700C000008E3F09F402C18F3F11
:100C700064F48D3F09F40DC280E061E00E943A0106
:100C80008AE691E00E94A500FFCF8F3F09F4F8C1EA
:100C9000813091F780E061E00E943A0187E491E0C1
:100CA0000E94A5008FEF93EDA0E381509040A040FB
:100CB000E1F700C0000081E060E00E947900CE0111
:100CC00003960E9413038D3F09F4D5C185E891E096
:100CD0000E94A50080E061E00E943A01CE010396E7
:100CE0000E94A5002FEF33ED40E3215030404040FB
:100CF000E1F700C0000081E060E00E947900CE01D1
:100D00008D599F4F0E9432038D3F09F4AFC182E994
:100D100091E00E94A50080E061E00E943A01CE01CE
:100D20008D599F4F0E94A5008FEF93EDA0E3815056
:100D30009040A040E1F700C0000081E060E00E9428
:100D40007900CE01C3960E9451038D3F09F4B2C1D0
:100D500080EA91E00E94A50080E061E00E943A01F3
:100D6000CE01C3960E94A5002FEF33ED40E3215042
:100D700030404040E1F700C0000081E060E00E94A8
:100D8000790087EA91E00E94A5008FEF93EDA0E340
:100D900081509040A040E1F700C000000E94B602E0
:100DA000882309F47FC18D3F09F489C1813089F41A
:100DB00080E061E00E943A0186EC91E00E94A5008B
:100DC0002FEF33ED40E3215030404040E1F700C0C9
:100DD000000081E060E00E94790080E060E00E9415
:100DE0003A0187ED91E00E94A50008E512E0FF249A
:100DF00026C080E061E00E943A0188EE91E00E9406
:100E0000A5008F2D61E00E943A0189E092E00E94E6
:100E1000A50081E161E00E943A01F39430E1F3160C
:100E200009F4FF248FEF90E7A2E081509040A040AA
:100E3000E1F700C000000150104009F449C10E94D0
:100E40008002982F8230A9F281E060E0C154DE4F29
:100E50009883CF5BD1400E947900C154DE4F9881C6
:100E6000CF5BD140913071F08AE192E00E94A50001
:100E7000FFCF80E061E00E943A0185E691E00E94A8
:100E8000A500FFCF8CE092E00E94A5002FEF33ED8C
:100E900040E3215030404040E1F700C0000081E0D5
:100EA00060E00E947900CE0143960E94DD02882313
:100EB00029F488E791E00E94A500FFCFCE01439678
:100EC0000E94A5008FEF93EDA0E381509040A040D9
:100ED000E1F700C0000081E060E00E9479008CE250
:100EE00092E00E94A50088E392E066E472E0AE0121
:100EF0004E5F5F4F0E947804813009F4A4C08D3F9B
:100F000009F498C080E061E00E943A018EE592E029
:100F10000E94A5002FEF37EA41E6215030404040C3
:100F2000E1F700C000000E94F50581E060E00E944A
:100F3000790080E060E00E943A0186E692E00E943B
:100F4000A50011E000E0CE0101960E94C5038130AA
:100F500001F180E061E00E943A0188EE91E00E9498
:100F6000A500802F61E00E943A0189E092E00E9492
:100F7000A50081E161E00E943A01010F0F3011F0FC
:100F8000002309F71195CE0101960E94C503813017
:100F900001F780E061E00E943A0186E792E00E945A
:100FA000A5008FEF93EDA0E381509040A040E1F7C2
:100FB00000C0000081E060E00E9479008981BE01EC
:100FC0006D567F4F0E940404813009F187E892E05A
:100FD0000E94A5008FEF9BE7A2E981509040A040BE
:100FE000E1F700C0000089810E947003813009F49C
:100FF0009CCF89E992E00E94A5002FEF3BE742E9F0
:10100000215030404040E1F700C000008ECF80E02A
:1010100060E00E943A01CE018D569F4F0E94A500CC
:101020002FEF3BE742E9215030404040E1F700C05C
:101030000000D9CF80E061E00E943A0183E592E0B0
:101040000E94A50067CF80E061E00E943A018BE436
:1010500092E00E94A50089E061E00E943A018A8145
:1010600090E063E070E00E94D60054CF88E791E002
:101070000E94A500FFCF88E791E00E94A500FFCF66
:1010800080E061E00E943A0188E591E00E94A500BD
:10109000FFCF80E061E00E943A018CE491E00E9481
:1010A000A500FFCF61E00E943A0188EB91E00E9429
:1010B000A500FFCF88E791E00E94A500FFCF80E068
:1010C00061E00E943A0188E791E00E94A500FFCF0D
:1010D00081E060E00E947900C7CE97FB092E0726C9
:1010E0000AD077FD04D00CD006D000201AF47095F9
:1010F00061957F4F0895F6F7909581959F4F0895DC
:10110000AA1BBB1B51E107C0AA1FBB1FA617B7072D
:1011100010F0A61BB70B881F991F5A95A9F7809549
:101120009095BC01CD010895FC0188279927E8948A
:1011300021912032E9F3293010F02E30C8F32B3200
:1011400041F02D3239F4689404C00E94EF08820FF8
:10115000911D219120532A30C0F31EF49095819562
:101160009F4F0895FB01DC018D9181341CF08B357C
:101170000CF4805E619161341CF06B350CF4605EA0
:10118000861B611189F3990B0895FC0181918617E3
:1011900021F08823D9F7992708953197CF01089531
:1011A000FB01DC0101900D920020E1F70895FB01A5
:1011B000DC014150504088F08D9181341CF08B351A
:1011C0000CF4805E619161341CF06B350CF4605E50
:1011D000861B611171F3990B0895881BFCCF7AE08F
:1011E000979F902D879F802D910D11240895AEE03B
:1011F000B0E0EDEFF8E00C94A50B0D891E8986E0B8
:101200008C831A8309838FEF9FE79E838D83AE01C2
:10121000475E5F4FCE0101966F89788D0E94190954
:10122000EF81F885E00FF11F10822E96E4E00C9418
:10123000C10BADE0B0E0EFE1F9E00C94970B3C019D
:101240007D876C875A01FC0117821682838181FF9A
:10125000C8C12E010894411C511CF3019381EC85F7
:10126000FD8593FD859193FF8191FD87EC87882310
:1012700009F4B3C1853241F493FD859193FF8191C7
:10128000FD87EC87853229F490E0B3010E940D0BB5
:10129000E4CFFF24EE2410E01032B0F48B3269F07A
:1012A0008C3228F4803251F0833271F40BC08D32CD
:1012B00039F0803349F411602CC01260146029C0E9
:1012C000186027C0106125C017FD2EC0282F20539D
:1012D0002A3098F416FF08C08F2D880FF82EFF0CC7
:1012E000FF0CF80EF20E15C08E2D880FE82EEE0CB6
:1012F000EE0CE80EE20E10620CC08E3221F416FDE8
:101300006CC1106406C08C3611F4106802C08836B7
:1013100059F4EC85FD8593FD859193FF8191FD87BF
:10132000EC87882309F0B8CF982F9554933018F0A4
:101330009052933038F424E030E0A20EB31E3FE325
:1013400039830FC0833631F0833781F0833509F05C
:101350005AC022C0F5018081898322E030E0A20ECC
:10136000B31E21E0C22ED12C420114C092E0292EDE
:10137000312C2A0C3B1CF5018080918016FF03C0A4
:101380006F2D70E002C06FEF7FEFC4010E94020B6F
:101390006C0151011F7715C082E0282E312C2A0CD8
:1013A0003B1CF5018080918016FF03C06F2D70E01B
:1013B00002C06FEF7FEFC4010E94F70A6C01106852
:1013C000510113FD1CC006C080E290E0B3010E94F1
:1013D0000D0BEA948E2D90E0C816D906A8F30FC025
:1013E000F40117FD859117FF81914F0190E0B30142
:1013F0000E940D0BE110EA940894C108D108C114B1
:10140000D10471F7E7C0843611F0893651F5F50142
:1014100017FF07C080819181A281B38124E030E071
:1014200008C080819181AA2797FDA095BA2F22E05C
:1014300030E0A20EB31E012F0F76B7FF08C0B095A3
:10144000A095909581959F4FAF4FBF4F0068BC010D
:10145000CD01A2012AE030E00E94390BD82ED41829
:101460003FC0853721F41F7E2AE030E020C0197F7D
:101470008F36A9F0803720F4883509F0AEC00BC054
:10148000803721F0883709F0A8C001C0106114FF2F
:1014900009C0146007C014FF08C0166006C028E029
:1014A00030E005C020E130E002C020E132E0F5018B
:1014B00017FF07C0608171818281938144E050E011
:1014C00006C06081718180E090E042E050E0A40EAF
:1014D000B51EA2010E94390BD82ED418012F0F7708
:1014E00006FF09C00E7FDF1430F404FF06C002FDC2
:1014F00004C00F7E02C01D2D01C01F2D802F90E063
:1015000004FF0CC0FE01ED0DF11D2081203311F40C
:10151000097E09C002FF06C01E5F05C08678907074
:10152000009709F01F5F802E992403FD12C000FF71
:101530000DC0FD2C1E1550F4FE0CF11A1E2D06C018
:1015400080E290E0B3010E940D0B1F5F1E15C0F3F7
:1015500004C01E1510F4E11A01C0EE2484FE0FC071
:1015600080E390E0B3010E940D0B82FE1FC081FE5C
:1015700003C088E590E010C088E790E00DC0C4018A
:1015800086789070009791F081FC02C080E201C0E3
:101590008BE207FD8DE290E0B3010E940D0B06C0C7
:1015A00080E390E0B3010E940D0BFA94DF14C0F3C6
:1015B000DA94F201ED0DF11D808190E0B3010E94FB
:1015C0000D0BDD20A9F706C080E290E0B3010E9478
:1015D0000D0BEA94EE20C1F740CEF301868197818E
:1015E00002C08FEF9FEF2D96E2E10C94B30BFC014C
:1015F0000590615070400110D8F7809590958E0F3E
:101600009F1F0895FC016150704001900110D8F7B0
:10161000809590958E0F9F1F08950F931F93CF93E2
:10162000DF938C01EB018B8181FF1BC082FF0DC01A
:101630002E813F818C819D812817390764F4E881D0
:10164000F9810193F983E88306C0E885F985802F45
:101650000995009731F48E819F8101969F838E8337
:1016600002C00FEF1FEFC801DF91CF911F910F91C3
:101670000895FA01AA27283051F1203181F1E89428
:101680006F936E7F6E5F7F4F8F4F9F4FAF4FB1E075
:101690003ED0B4E03CD0670F781F891F9A1FA11D70
:1016A000680F791F8A1F911DA11D6A0F711D811D71
:1016B000911DA11D20D009F468943F912AE0269F36
:1016C00011243019305D3193DEF6CF010895462F95
:1016D0004770405D4193B3E00FD0C9F7F6CF462F76
:1016E0004F70405D4A3318F0495D31FD40524193DF
:1016F00002D0A9F7EACFB4E0A6959795879577959C
:101700006795BA95C9F700976105710508959B0122
:10171000AC010A2E06945795479537952795BA95AB
:10172000C9F7620F731F841F951FA01D08952F9284
:101730003F924F925F926F927F928F929F92AF9261
:10174000BF92CF92DF92EF92FF920F931F93CF93AE
:10175000DF93CDB7DEB7CA1BDB0B0FB6F894DEBF45
:101760000FBECDBF09942A88398848885F846E846B
:101770007D848C849B84AA84B984C884DF80EE80B5
:10178000FD800C811B81AA81B981CE0FD11D0FB6BE
:10179000F894DEBF0FBECDBFED010895F894FFCFE2
:1017A0000000040E0400000000040E1F0E040000E0
:1017B00000010105051515000000000404141400C3
:1017C00000000000001010001F0E040404040400B8
:1017D000110A040A110000001E1F1F1F111F1F0005
:1017E0004154004F4B0041542B435245473F004169
:1017F000542B43534D494E533F0041542B435350B8
:101800004E3F0041542B47534E0041542B474D4906
:101810000041542B474D4D0041542B434D47443D0F
:101820002564002B434D54493A0041542B434D4706
:10183000523D2564002B434D53204552524F523A9E
:10184000203531370041542B434D47533D202573FC
:1018500000434D47533A0053494D333030204465DF
:101860006D6F2021004279204176696E6173682096
:10187000477570746100496E697469616C697A6951
:101880006E67202E2E2E004F4B2021004E6F2072AF
:101890006573706F6E736500496E76207265737044
:1018A0006F6E7365004661696C00556E6B6E6F7785
:1018B0006E204572726F7200436F6D6D20457272BB
:1018C0006F7220210044657669636520494D454962
:1018D0003A004D616E7566616374757265723A00A7
:1018E0004D6F64656C3A00436865636B696E672091
:1018F00053494D43617264004E6F2053494D20435C
:1019000061726420210053494D204361726420506C
:10191000726573656E7400536561726368696E67A2
:101920004E6574776F726B00253025302530253079
:1019300025302530253025302530253025302530FF
:101940002530253025302530002531004E6574774F
:101950006F726B20466F756E640043616E74204336
:101960006F6E6E7420746F204E57210053656E6445
:10197000696E67204D7367002B3931393933395817
:10198000585858585800546573740053756363650C
:1019900073730054696D65206F7574202100466172
:1019A000696C2020210057616974696E6720666F39
:1019B00072206D7367004D534720526563656976E9
:1019C00065642020202000457272205265616469A0
:1019D0006E67204D73672021004572722044656C4C
:0C19E0006574696E67204D73672021005C
:00000001FF
